:020000040800F2
:100000000000082485210008A11F0008A31F000884
:10001000A51F0008A71F0008A91F00080000000076
:10002000000000000000000000000000A17E0008A9
:10003000AB1F000800000000417F0008AD1F000852
:10004000D5210008D5210008D5210008D5210008B8
:10005000D5210008D5210008D5210008D5210008A8
:10006000D5210008D5210008C31F0008CD1F0008B6
:10007000D5210008D5210008DD1F0008D521000882
:10008000D5210008D5210008D5210008D521000878
:10009000D5210008D5210008D5210008D521000868
:1000A000D5210008D5210008D5210008D521000858
:1000B000D5210008D5210008D5210008D521000848
:1000C000D5210008D5210008D5210008ED1F000822
:1000D000D5210008D5210008D5210008D521000828
:1000E000D5210008D521000800000000D521000816
:1000F000D5210008D5210008D5210008D521000808
:10010000D5210008D5210008D5210008D5210008F7
:10011000D5210008D5210008D5210008D5210008E7
:10012000D5210008D5210008D5210008D5210008D7
:10013000D5210008D5210008D5210008D5210008C7
:1001400000000000000000000000000000000000AF
:10015000D5210008D5210008D5210008D5210008A7
:10016000D5210008D5210008D5210008D521000897
:10017000D5210008D5210008D5210008D521000887
:10018000D5210008D5210008D5210008D521000877
:10019000D5210008D5210008D5210008D521000867
:1001A000D5210008D5210008D5210008D521000857
:1001B000D5210008D5210008D5210008D521000847
:1001C000D5210008D5210008D5210008D521000837
:1001D000D5210008D5210008D5210008D521000827
:1001E000D5210008D5210008D5210008D521000817
:1001F000D5210008D5210008D5210008D521000807
:10020000D5210008D5210008D5210008D5210008F6
:10021000D5210008D5210008D5210008D5210008E6
:10022000D5210008D5210008D521000800000000D4
:10023000D5210008D521000800000000D5210008C4
:10024000D5210008D5210008D5210008D5210008B6
:10025000D5210008D5210008D5210008D5210008A6
:10026000D5210008D5210008D5210008D521000896
:10027000D5210008D5210008D52100080000000084
:10028000D5210008D5210008D52100080000000074
:0802900000000000D521000868
:1002C00010B5054C237833B9044B13B10448AFF390
:1002D00000800123237010BDD80900240000000015
:1002E000BC1C010808B5034B1BB103490348AFF31D
:1002F000008008BD00000000DC090024BC1C0108CF
:1003000081F0004102E000BF83F0004330B54FEAC6
:1003100041044FEA430594EA050F08BF90EA020F33
:100320001FBF54EA000C55EA020C7FEA645C7FEAC6
:10033000655C00F0E2804FEA5454D4EB5555B8BFE9
:100340006D420CDD2C4480EA020281EA030382EA5A
:10035000000083EA010180EA020281EA0303362DEC
:1003600088BF30BD11F0004F4FEA01314FF4801CBF
:100370004CEA113102D0404261EB410113F0004FD1
:100380004FEA03334CEA133302D0524263EB430388
:1003900094EA050F00F0A780A4F10104D5F1200E26
:1003A0000DDB02FA0EFC22FA05F2801841F1000181
:1003B00003FA0EF2801843FA05F359410EE0A5F155
:1003C00020050EF1200E012A03FA0EFC28BF4CF086
:1003D000020C43FA05F3C01851EBE37101F000453C
:1003E00007D54FF0000EDCF1000C7EEB00006EEB49
:1003F0000101B1F5801F1BD3B1F5001F0CD34908D3
:100400005FEA30004FEA3C0C04F101044FEA445229
:1004100012F5800F80F09A80BCF1004F08BF5FEAB0
:10042000500C50F1000041EB045141EA050130BD90
:100430005FEA4C0C404141EB0101013C28BFB1F5A2
:10044000801FE9D291F0000F04BF01460020B1FAED
:1004500081F308BF2033A3F10B03B3F120020CDAC0
:100460000C3208DD02F1140CC2F10C0201FA0CF09E
:1004700021FA02F10CE002F11402D8BFC2F1200C03
:1004800001FA02F120FA0CFCDCBF41EA0C019040B9
:10049000E41AA2BF01EB0451294330BD6FEA040402
:1004A0001F3C1CDA0C340EDC04F11404C4F12002ED
:1004B00020FA04F001FA02F340EA030021FA04F3FF
:1004C00045EA030130BDC4F10C04C4F1200220FA56
:1004D00002F001FA04F340EA0300294630BD21FA94
:1004E00004F0294630BD94F0000F83F4801306BF5A
:1004F00081F480110134013D4EE77FEA645C18BF4E
:100500007FEA655C29D094EA050F08BF90EA020FE4
:1005100005D054EA000C04BF1946104630BD91EADC
:10052000030F1EBF0021002030BD5FEA545C05D1DF
:100530004000494128BF41F0004130BD14F580041E
:100540003CBF01F5801130BD01F0004545F0FE4192
:1005500041F470014FF0000030BD7FEA645C1ABFC7
:10056000194610467FEA655C1CBF0B46024650EAFE
:10057000013406BF52EA033591EA030F41F400212A
:1005800030BD00BF90F0000F04BF0021704730B5B0
:100590004FF4806404F132044FF000054FF0000185
:1005A00050E700BF90F0000F04BF0021704730B546
:1005B0004FF4806404F1320410F0004548BF40421B
:1005C0004FF000013EE700BF42004FEAE2014FEA70
:1005D00031014FEA02701FBF12F07F4393F07F4F4B
:1005E00081F06051704732F07F4208BF704793F04E
:1005F0007F4F04BF41F40021704730B54FF4607461
:1006000001F0004521F000411CE700BF50EA010263
:1006100008BF704730B54FF000050AE050EA01020C
:1006200008BF704730B511F0004502D5404261EB7C
:1006300041014FF4806404F132045FEA915C3FF4BD
:10064000D8AE4FF003025FEADC0C18BF03325FEA5A
:10065000DC0C18BF033202EBDC02C2F1200300FA0B
:1006600003FC20FA02F001FA03FE40EA0E0021FA30
:1006700002F11444BDE600BF70B54FF0FF0C4CF41E
:10068000E06C1CEA11541DBF1CEA135594EA0C0FD0
:1006900095EA0C0F00F0DEF82C4481EA030621EA0B
:1006A0004C5123EA4C5350EA013518BF52EA033546
:1006B00041F4801143F4801338D0A0FB02CE4FF0F8
:1006C0000005E1FB02E506F00042E0FB03E54FF028
:1006D0000006E1FB03569CF0000F18BF4EF0010E20
:1006E000A4F1FF04B6F5007F64F5407404D25FEA1C
:1006F0004E0E6D4146EB060642EAC62141EA5551CF
:100700004FEAC52040EA5E504FEACE2EB4F1FD0C10
:1007100088BFBCF5E06F1ED8BEF1004F08BF5FEA8E
:10072000500E50F1000041EB045170BD06F0004640
:1007300046EA010140EA020081EA0301B4EB5C04ED
:10074000C2BFD4EB0C0541EA045170BD41F48011E5
:100750004FF0000E013C00F3AB8014F1360FDEBF0A
:10076000002001F0004170BDC4F10004203C35DAE6
:100770000C341BDC04F11404C4F1200500FA05F369
:1007800020FA04F001FA05F240EA020001F000420A
:1007900021F0004110EBD37021FA04F642EB060180
:1007A0005EEA430E08BF20EAD37070BDC4F10C04AA
:1007B000C4F1200500FA04F320FA05F001FA04F26E
:1007C00040EA020001F0004110EBD37041F100015A
:1007D0005EEA430E08BF20EAD37070BDC4F1200565
:1007E00000FA05F24EEA020E20FA04F301FA05F2CD
:1007F00043EA020321FA04F001F0004121FA04F275
:1008000020EA020000EBD3705EEA430E08BF20EA44
:10081000D37070BD94F0000F0FD101F0004640007E
:1008200041EB010111F4801F08BF013CF7D041EA00
:10083000060195F0000F18BF704703F00046520004
:1008400043EB030313F4801F08BF013DF7D043EAD5
:100850000603704794EA0C0F0CEA135518BF95EA8B
:100860000C0F0CD050EA410618BF52EA4306D1D112
:1008700081EA030101F000414FF0000070BD50EA31
:10088000410606BF1046194652EA430619D094EABB
:100890000C0F02D150EA013613D195EA0C0F05D1A5
:1008A00052EA03361CBF104619460AD181EA0301F9
:1008B00001F0004141F0FE4141F470014FF00000B1
:1008C00070BD41F0FE4141F4780170BD70B54FF04C
:1008D000FF0C4CF4E06C1CEA11541DBF1CEA1355CC
:1008E00094EA0C0F95EA0C0F00F0A7F8A4EB0504AE
:1008F00081EA030E52EA03354FEA013100F08880A5
:100900004FEA03334FF0805545EA131343EA12636D
:100910004FEA022245EA111545EA10654FEA002622
:100920000EF000419D4208BF964244F1FD0404F5DB
:10093000407402D25B084FEA3202B61A65EB030537
:100940005B084FEA32024FF480104FF4002CB6EBF4
:10095000020E75EB030E22BFB61A754640EA0C0074
:100960005B084FEA3202B6EB020E75EB030E22BFB4
:10097000B61A754640EA5C005B084FEA3202B6EBF5
:10098000020E75EB030E22BFB61A754640EA9C00B4
:100990005B084FEA3202B6EB020E75EB030E22BF84
:1009A000B61A754640EADC0055EA060E18D04FEA42
:1009B000051545EA16754FEA06164FEAC30343EAE2
:1009C00052734FEAC2025FEA1C1CC0D111F4801FAF
:1009D0000BD141EA00014FF000004FF0004CB6E7A8
:1009E00011F4801F04BF01430020B4F1FD0C88BF47
:1009F000BCF5E06F3FF6AFAEB5EB030C04BFB6EB52
:100A0000020C5FEA500C50F1000041EB045170BD44
:100A10000EF0004E4EEA113114EB5C04C2BFD4EB71
:100A20000C0541EA045170BD41F480114FF0000EF5
:100A3000013C90E645EA060E8DE60CEA135594EA71
:100A40000C0F08BF95EA0C0F3FF43BAF94EA0C0F74
:100A50000AD150EA01347FF434AF95EA0C0F7FF4E9
:100A600025AF104619462CE795EA0C0F06D152EA3D
:100A700003353FF4FDAE1046194622E750EA410621
:100A800018BF52EA43067FF4C5AE50EA41047FF432
:100A90000DAF52EA43057FF4EBAE12E74FF0FF3C97
:100AA00006E000BF4FF0010C02E000BF4FF0010C68
:100AB0004DF804CD4FEA410C7FEA6C5C4FEA430CE1
:100AC00018BF7FEA6C5C1BD001B050EA410C0CBF30
:100AD00052EA430C91EA030F02BF90EA020F002092
:100AE000704710F1000F91EA030F58BF994208BFF9
:100AF00090422CBFD8176FEAE37040F001007047B6
:100B00004FEA410C7FEA6C5C02D150EA013C07D10C
:100B10004FEA430C7FEA6C5CD6D152EA033CD3D057
:100B20005DF8040B704700BF8446104662468C4651
:100B30001946634600E000BF01B5FFF7B7FF002884
:100B400048BF10F1000F01BD4DF808EDFFF7F4FFAD
:100B50000CBF012000205DF808FB00BF4DF808ED38
:100B6000FFF7EAFF34BF012000205DF808FB00BF5B
:100B70004DF808EDFFF7E0FF94BF012000205DF87D
:100B800008FB00BF4DF808EDFFF7CEFF94BF012032
:100B900000205DF808FB00BF4DF808EDFFF7C4FF2B
:100BA00034BF012000205DF808FB00BF4FEA41027E
:100BB000B2F1E04324BFB3F5001CDCF1FE5C0DD9BB
:100BC00001F0004C4FEAC0024CEA5070B2F1004F05
:100BD00040EB830008BF20F00100704711F0804F08
:100BE00021D113F13872BCBF01F00040704741F4CD
:100BF00080114FEA5252C2F11802C2F1200C10FAD1
:100C00000CF320FA02F018BF40F001004FEAC123B4
:100C10004FEAD32303FA0CFC40EA0C0023FA02F358
:100C20004FEA4303CCE77FEA625307D150EA01332E
:100C30001EBF4FF0FE4040F44000704701F00040FE
:100C400040F0FE4040F40000704700BF53B94AB97D
:100C5000002908BF00281CBF4FF0FF314FF0FF30C4
:100C600000F074B9ADF1080C6DE904CE00F006F89F
:100C7000DDF804E0DDE9022304B070472DE9F04718
:100C8000089D04468E46002B4DD18A42944669D970
:100C9000B2FA82F252B101FA02F3C2F1200120FA53
:100CA00001F10CFA02FC41EA030E94404FEA1C48A1
:100CB000210CBEFBF8F61FFA8CF708FB16E341EA9D
:100CC000034306FB07F199420AD91CEB030306F123
:100CD000FF3080F01F81994240F21C81023E634444
:100CE0005B1AA4B2B3FBF8F008FB103344EA0344E8
:100CF00000FB07F7A7420AD91CEB040400F1FF33FD
:100D000080F00A81A74240F207816444023840EA39
:100D10000640E41B00261DB1D4400023C5E9004372
:100D20003146BDE8F0878B4209D9002D00F0EF80F5
:100D30000026C5E9000130463146BDE8F087B3FA28
:100D400083F6002E4AD18B4202D3824200F2F98010
:100D5000841A61EB030301209E46002DE0D0C5E913
:100D6000004EDDE702B9FFDEB2FA82F2002A40F05F
:100D70009280A1EB0C014FEA1C471FFA8CFE012662
:100D8000200CB1FBF7F307FB131140EA01410EFB06
:100D900003F0884208D91CEB010103F1FF3802D2AD
:100DA000884200F2CB804346091AA4B2B1FBF7F0A7
:100DB00007FB101144EA01440EFB00FEA64508D9CA
:100DC0001CEB040400F1FF3102D2A64500F2BB8007
:100DD0000846A4EB0E0440EA03409CE7C6F1200756
:100DE000B34022FA07FC4CEA030C20FA07F401FA9C
:100DF00006F31C43F9404FEA1C4900FA06F3B1FB25
:100E0000F9F8200C1FFA8CFE09FB181140EA014189
:100E100008FB0EF0884202FA06F20BD91CEB010126
:100E200008F1FF3A80F08880884240F28580A8F17E
:100E300002086144091AA4B2B1FBF9F009FB1011D0
:100E400044EA014100FB0EFE8E4508D91CEB01016E
:100E500000F1FF346CD28E456AD90238614440EA11
:100E60000840A0FB0294A1EB0E01A142C846A64691
:100E700056D353D05DB1B3EB080261EB0E0101FA1A
:100E800007F722FA06F3F1401F43C5E90071002677
:100E90003146BDE8F087C2F12003D8400CFA02FCCD
:100EA00021FA03F3914001434FEA1C471FFA8CFEDD
:100EB000B3FBF7F007FB10360B0C43EA064300FBCD
:100EC0000EF69E4204FA02F408D91CEB030300F16B
:100ED000FF382FD29E422DD9023863449B1B89B222
:100EE000B3FBF7F607FB163341EA034106FB0EF3AB
:100EF0008B4208D91CEB010106F1FF3816D28B4258
:100F000014D9023E6144C91A46EA004638E72E4623
:100F1000284605E70646E3E61846F8E64B45A9D21B
:100F2000B9EB020864EB0C0E0138A3E74646EAE78A
:100F3000204694E74046D1E7D0467BE7023B614438
:100F400032E7304609E76444023842E7704700BFA1
:100F5000844641EA000313F003036DD1403A41D3C4
:100F600051F8043B40F8043B51F8043B40F8043B83
:100F700051F8043B40F8043B51F8043B40F8043B73
:100F800051F8043B40F8043B51F8043B40F8043B63
:100F900051F8043B40F8043B51F8043B40F8043B53
:100FA00051F8043B40F8043B51F8043B40F8043B43
:100FB00051F8043B40F8043B51F8043B40F8043B33
:100FC00051F8043B40F8043B51F8043B40F8043B23
:100FD00051F8043B40F8043B51F8043B40F8043B13
:100FE000403ABDD2303211D351F8043B40F8043BB3
:100FF00051F8043B40F8043B51F8043B40F8043BF3
:1010000051F8043B40F8043B103AEDD20C3205D3C2
:1010100051F8043B40F8043B043AF9D2043208D0BA
:10102000D2071CBF11F8013B00F8013B01D30B882C
:1010300003806046704700BF082A13D38B078DD00A
:1010400010F003038AD0C3F10403D21ADB071CBFDC
:1010500011F8013B00F8013B80D331F8023B20F846
:10106000023B7BE7043AD9D3013A11F8013B00F87F
:10107000013BF9D20B7803704B7843708B78837007
:101080006046704700000000000000000000000003
:101090000000000000000000000000000000000050
:1010A0000000000000000000000000000000000040
:1010B0000000000000000000000000000000000030
:1010C00090F800F06DE9024520F007016FF0000C88
:1010D00010F0070491F820F040F049804FF0000430
:1010E0006FF00700D1E9002391F840F000F108000B
:1010F00082FA4CF2A4FA8CF283FA4CF3A2FA8CF343
:101100004BBBD1E9022382FA4CF200F10800A4FAA9
:101110008CF283FA4CF3A2FA8CF3E3B9D1E90423FD
:1011200082FA4CF200F10800A4FA8CF283FA4CF334
:10113000A2FA8CF37BB9D1E9062301F1200182FAEE
:101140004CF200F10800A4FA8CF283FA4CF3A2FAF4
:101150008CF3002BC6D0002A04BF04301A4612BA02
:10116000B2FA82F2FDE8024500EBD2007047D1E905
:10117000002304F00305C4F100004FEAC50514F094
:10118000040F91F840F00CFA05F562EA05021CBF65
:1011900063EA050362464FF00004A9E7000000007F
:1011A00001F0FF01102A2BDB10F0070F08D010F818
:1011B000013B013A8B422DD010F0070F42B3F6D11C
:1011C000F0B441EA012141EA014122F007047FF035
:1011D00000070023F0E80256083C85EA010586EA8C
:1011E000010685FA47F5A3FA87F586FA47F6A5FAC8
:1011F00087F68EB9EED1F0BC01F0FF0102F00702D4
:1012000032B110F8013B013A83EA010313B1F8D17E
:101210000020704701387047002D06BF354603385F
:10122000073815F0010F07D1013015F4807F02BF98
:10123000013015F4C03F0130F0BC0138704700BFE9
:101240004FEA410C7FEA6C5C02D150EA013C0AD1C2
:101250004FEA430C7FEA6C5C02D152EA033C02D1B4
:101260004FF0000070474FF0010070474FEA410215
:1012700012F5001215D211D56FF47873B3EB6252E8
:1012800012D94FEAC12343F0004343EA505311F00F
:10129000004F23FA02F018BF404270474FF00000A1
:1012A000704750EA013005D111F0004008BF6FF0DF
:1012B000004070474FF00000704700BF70470000CB
:1012C000034B0360034B0B604FF480731360704754
:1012D000680E0024640A0024F0B583B0B2EE080A58
:1012E00008F058FA0121072008F05CFC08F0D0FE55
:1012F0003B4B3C4ADA643C4A1A654FF07E52DA6155
:1013000046E008F021FD40E0384B93ED010AF3EE92
:101310000E7AB4EEE70AF1EE10FA06DCFBEE0E7A76
:10132000B4EEE70AF1EE10FA07D5314808F084FF71
:101330002E4B4FF07E525A6027E008F00DFE24E05D
:101340002A4C94ED010A08F043FD94ED017ADFED9B
:10135000297AC7EE277A17EE900AFFF735F9064685
:101360000F46254B1868FFF72FF904460D461AA3C0
:10137000D3E9002330463946FFF77EF9CDE9000175
:1013800022462B461D4808F057FF012006F07FFC3F
:101390001B4B1B78022BB7D0032BD1D0012BF4D1E0
:1013A000124B93ED010AF3EE0E7AB4EEE70AF1EE7A
:1013B00010FA06DCFBEE0E7AB4EEE70AF1EE10FA54
:1013C0009FD50B4808F038FF084B4FF07E525A600B
:1013D000DBE700BFAFF300804AD8124DFB21094084
:1013E00040B8002400004040000040C0F80900243C
:1013F000F41C01080000344314B800241C1D01082B
:10140000F409002408B54FF4FA7006F040FCFAE73E
:1014100008B54FF4FA7006F03AFCFAE770B582B0FE
:101420002D4C204608F008FF2C4808F005FF2C48FA
:1014300008F002FF2B4808F0FFFE2B4808F0FCFEE6
:101440002A4808F0F9FE2A4808F0F6FE294808F074
:10145000F3FE294808F0F0FE284808F0EDFE284881
:1014600008F0EAFE204608F0E7FE012426E000240A
:101470000CBB244D244E2946304608F00FFFD5ED15
:10148000007AFCEEE77ACDED017A9DF804401F4B1F
:101490001C706868FFF798F802460B4621461C4806
:1014A00008F0CAFE64220021304609F0B3FA194858
:1014B00005F002FD0124642006F0E9FB64221249D4
:1014C000144806F0DFFA0023632BD1DC0E4AD25C0D
:1014D000002ACCD10133F7E7241D0108701D010853
:1014E000901D0108A41D0108C41D0108DC1D010890
:1014F0000C1E01084C1E0108801E0108B81E0108C0
:10150000E41E0108F8090024000A0024F40900245C
:10151000141F0108D01500242DE9F04F8BB00024D2
:10152000059406940794089409945E4BD3F8E02040
:1015300042F01002C3F8E020D3F8E02002F01002DD
:101540000092009AD3F8E02042F08002C3F8E02035
:10155000D3F8E02002F080020192019AD3F8E02053
:1015600042F00102C3F8E020D3F8E02002F00102CB
:101570000292029AD3F8E02042F00402C3F8E0207D
:10158000D3F8E02002F004020392039AD3F8E0209B
:1015900042F00202C3F8E020D3F8E03003F0020387
:1015A0000493049BDFF808A101220221504602F0B7
:1015B00033FCDFF8009122461021484602F02CFC53
:1015C000394F22460121384602F026FC0122022131
:1015D000384602F021FC354E01228121304602F0CE
:1015E0001BFC0823059306940125079505A93046A1
:1015F00002F002FB4FF00208CDF814800695079424
:10160000089405A9504602F0F7FA4FF0100BCDF8F8
:1016100014B04FF404130693079405A9504602F042
:10162000EBFACDF814B006950795CDF8208005A902
:10163000484602F0E1FA202305930694079505A990
:10164000484602F0D9FA059506950795089405A92C
:10165000384602F0D1FACDF8148006950795CDF8FA
:10166000208005A9384602F0C7FA80230593069525
:101670000794089405A9304602F0BEFA0595069530
:101680000795089405A9304602F0B6FA22460621CD
:101690000A2000F035FE0A2000F068FE0BB0BDE81D
:1016A000F08F00BF00440258000402580010025896
:1016B000000002580008025800B583B00F4BD3F861
:1016C000D82042F00102C3F8D820D3F8D83003F074
:1016D00001030193019B002206210B2000F010FE64
:1016E0000B2000F043FE002205210E2000F008FE32
:1016F0000E2000F03BFE03B05DF804FB00440258EE
:1017000008B5144808F098FD06F0DCFB00211248EB
:1017100006F088FA114B18600021114806F082FA91
:10172000104B18600021104806F07CFA0F4B18602F
:1017300000210F4806F076FA0E4B186006F0E4FB25
:1017400002210D4802F06EFB4FF4FA7006F09FFA8A
:10175000F6E700BF6C1F0108D41F0108F412002433
:10176000801F0108E8120024B81F0108F0120024AD
:101770009C1F0108EC1200240000025872B6FEE71C
:1017800008B50848084B03600023037143714361A7
:1017900083610123036200F00BFE00B908BDFFF76F
:1017A000EDFF00BFFC120024004C025808B515489C
:1017B000154B03604FF4800343604FF400338360A4
:1017C0000723C3600023036143614FF0806282619D
:1017D000C361036243628362C3624FF0804242632B
:1017E0008363C363036443648364C36403654FF02A
:1017F00000424265836504F027FD00B908BDFFF78C
:10180000BDFF00BF641400240030014000B58BB060
:101810000023079308930993009301930293039382
:101820000493059306931748174A02600522426005
:1018300083604FF47A72C26003618023836105F094
:10184000CBF8C0B900230793099307A90D4805F009
:101850009DFA90B9602300930022019202920492B3
:101860006946084805F032F948B9064800F0C4FA5C
:101870000BB05DF804FBFFF781FFFFF77FFFFFF779
:101880007DFF00BFEC1400240004004000B58BB0C5
:101890000023079308930993009301930293039302
:1018A0000493059306931748174A02600522426085
:1018B00083604FF47A72C26003618023836105F014
:1018C0008BF8C8B900230793099307A90D4805F0C1
:1018D0005DFA98B960230093002301930293049367
:1018E00004226946074805F0F1F848B9054800F0B8
:1018F00083FA0BB05DF804FBFFF740FFFFF73EFFF4
:10190000FFF73CFF381500240008004000B58BB0FD
:101910000023079308930993009301930293039381
:101920000493059306931748174A02600522426004
:1019300083604FF47A72C26003618023836105F093
:101940004BF8C8B900230793099307A90D4805F080
:101950001DFA98B960230093002301930293049326
:1019600008226946074805F0B1F848B9054800F073
:1019700043FA0BB05DF804FBFFF700FFFFF7FEFE34
:10198000FFF7FCFE84150024000C004008B5154844
:10199000154B03604FF4E133436000238360C36061
:1019A00003610C2242618361C3610362436283620B
:1019B00005F0DDFF70B900210A4806F0CEF858B9ED
:1019C0000021084806F0EEF840B9064806F0A6F8EF
:1019D00030B908BDFFF7D2FEFFF7D0FEFFF7CEFE0D
:1019E000FFF7CCFED01500240010014008B51148C7
:1019F000114B0360114B4360002383600122C260DE
:101A0000036143618361C361036202F0B3FB50B9B8
:101A10000021084802F0E4FC38B90021054802F032
:101A20000DFD20B908BDFFF7A9FEFFF7A7FEFFF7E0
:101A3000A5FE00BF1014002400580040FFECC010A9
:101A400000B59DB04C22002109A808F0E3FF202238
:101A5000002101A808F0DEFF022002F01BFD002398
:101A60000093274BDA6A22F00102DA62DB6A03F0A4
:101A700001030093234B9A6942F440429A619B69A7
:101A800003F440430093009B1E4B9B6913F4005FDB
:101A9000FAD0032309934FF480330A9301230C9364
:101AA00040230D9302231293139304221492802156
:101AB00015911693179318920823199300231A93DC
:101AC0001B9309A802F010FDB0B93F230193032333
:101AD0000293002303930823049340230593069362
:101AE0004FF4806207920893022101A803F050F995
:101AF00020B91DB05DF804FBFFF740FEFFF73EFE86
:101B0000000400580048025800B589B000F08CFB72
:101B1000FFF796FFFFF700FDFFF7CEFDFFF730FE62
:101B2000FFF744FEFFF772FEFFF7B0FEFFF7EEFE91
:101B3000FFF72CFFFFF75AFF0B4806F0AFF80B4BEF
:101B400018600DF1040C0A4C0FCCACE80F0094E8BF
:101B500007008CE80700002101A806F063F8054B98
:101B6000186006F050F8FEE7781F0108641600249C
:101B7000D81C0108F812002400B583B00A4BD3F832
:101B8000F42042F00202C3F8F420D3F8F43003F05A
:101B900002030193019B00220F216FF0010000F06E
:101BA000AFFB03B05DF804FB0044025802680A4B27
:101BB0009A4200D0704782B0A3F50063D3F8E020CA
:101BC00042F40022C3F8E020D3F8E03003F400230D
:101BD0000193019B02B07047004C025810B5B8B099
:101BE0000446002133913491359136913791C022CA
:101BF00002A808F00FFF22681B4B9A4201D038B0B0
:101C000010BD08220023CDE9022302A803F05CFBEB
:101C100038BB164CD4F8E03043F00203C4F8E0308F
:101C2000D4F8E03003F002030093009B4FF44063CC
:101C3000339312233493002335933693042337933D
:101C400033A90B4801F0D8FFD4F8E83043F48003FF
:101C5000C4F8E830D4F8E83003F480030193019B22
:101C6000CDE7FFF78BFDD4E7005800400044025851
:101C70000004025830B5B9B00446002133913491C4
:101C8000359136913791C02202A808F0C3FE226830
:101C9000344B9A4201D039B030BD4FF4805200230A
:101CA000CDE902230823049380230593022306939E
:101CB00007930893402309934FF480531A9302A883
:101CC00003F002FB002846D1274BD3F8F02042F462
:101CD0008052C3F8F020D3F8F02002F48052009232
:101CE000009AD3F8E02042F00102C3F8E020D3F8D4
:101CF000E03003F001030193019BA02333930223FF
:101D000034930025359536930523379333A9174827
:101D100001F072FF1648174B0360262343604023EF
:101D20008360C5604FF48063036145618561C5616F
:101D30004FF480330362456200F0CAFD70B90C4B6A
:101D4000A3679C6300220521232000F0D9FA2320F9
:101D500000F00CFB9FE7FFF711FDB5E7FFF70EFD65
:101D6000EDE700BF00300140004402580000025877
:101D7000201300241000024084B003681A4A9342E2
:101D800007D01A4A934212D0194A93421DD004B088
:101D90007047184BD3F8E82042F00202C3F8E8205D
:101DA000D3F8E83003F002030193019BEFE7114BF6
:101DB000D3F8E82042F00402C3F8E820D3F8E83072
:101DC00003F004030293029BE1E70A4BD3F8E820F7
:101DD00042F00802C3F8E820D3F8E83003F0080323
:101DE0000393039BD3E700BF0004004000080040BA
:101DF000000C00400044025800B589B00023039352
:101E000004930593069307930368284A934208D0E6
:101E1000274A93421CD0274A934230D009B05DF83C
:101E200004FB254BD3F8E02042F00402C3F8E02085
:101E3000D3F8E03003F004030093009B40230393A6
:101E400002230493079303A91C4801F0D5FEE5E79C
:101E5000194BD3F8E02042F00202C3F8E020D3F897
:101E6000E03003F002030193019B802303930223DC
:101E70000493079303A9124801F0BEFECEE70E4B70
:101E8000D3F8E02042F00102C3F8E020D3F8E030BC
:101E900003F001030293029B0423039302230493A0
:101EA000079303A9074801F0A7FEB7E70004004025
:101EB00000080040000C004000440258000802588E
:101EC000000402580000025830B5B9B004460021A1
:101ED00033913491359136913791C02202A808F0A0
:101EE00099FD2268294B9A4201D039B030BD0122B8
:101EF0000023CDE902231823219302A803F0E4F97B
:101F000000283DD1224BD3F8F02042F01002C3F854
:101F1000F020D3F8F02002F010020092009AD3F8DB
:101F2000E02042F00102C3F8E020D3F8E03003F0F3
:101F300001030193019B4FF4C06333930223349355
:101F40000025359536950723379333A9114801F0BD
:101F500053FE1148114B0360292343608560C5601F
:101F60004FF48063036145618561C5610562456227
:101F700000F0AEFC38B9084BC4F880309C63B4E77D
:101F8000FFF7FCFBBEE7FFF7F9FBF4E700100140A9
:101F900000440258000002589813002458000240E0
:101FA000FEE7FEE7FEE7FEE7FEE7704708B500F054
:101FB00069F907F0A3FA012800D108BD05F0F2FF86
:101FC000FBE708B5102001F037FF08BD08B502484F
:101FD00001F074FA08BD00BF2013002408B50248C0
:101FE00001F06CFA08BD00BF9813002408B5024840
:101FF00004F004FA08BD00BF6414002401207047F7
:1020000008B508F02DFA162303604FF0FF3008BD25
:1020100008B54FF0FF31FFF7F3FFFEE770B50C4650
:102020001646002506E0AFF30080214601F8010BBB
:1020300001350C46B542F6DB304670BD70B50C4636
:102040001646002504E014F8010BAFF300800135BB
:10205000B542F8DB304670BD4FF0FF3070474FF4AB
:1020600000534B60002070470120704700207047EC
:1020700010B503460C4A0D490D48006840B10C48A4
:1020800000680344521A934206D8094A136010BDEF
:102090000748084C0460F2E708F0E2F90C230360FB
:1020A0004FF0FF30F3E700BF0000082400400000BD
:1020B00068160024E0B80024274AD2F8883043F498
:1020C0007003C2F88830254B1B6803F00F03062B02
:1020D00006D8224A136823F00F0343F00703136066
:1020E0001F4B1A6842F001021A6000221A61196837
:1020F0001C4A0A401A60194B1B6813F0080F06D0DF
:10210000164A136823F00F0343F007031360144BC0
:1021100000229A61DA611A62134999621349D962FD
:10212000134919635A639963DA6319645A64196825
:1021300021F4802119601A660E4B1A680E4B134069
:10214000B3F1005F03D20D4B0122C3F808210C4B01
:1021500043F2D2021A60704700ED00E00020005206
:10216000004402587FEDF6EA000202020000FF017F
:10217000800201010010005C0000FFFF00800051A0
:1021800000400052DFF834D0FFF796FF0C480D49AD
:102190000D4A002302E0D458C4500433C4188C42C2
:1021A000F9D30A4A0A4C002301E013600432A24228
:1021B000FBD308F05BF9FFF7A7FC70470000082489
:1021C00000000024D409002454260108D809002462
:1021D000DCB80024FEE70000104B1B780BB901208F
:1021E000704710B504464FF47A70B0FBF3F30C4A15
:1021F0001068B0FBF3F000F0C7F868B90F2C01D9F4
:1022000001200AE0002221464FF0FF3000F078F86C
:10221000044B1C60002000E0012010BD08000024D9
:10222000000000240C00002410B5032000F056F834
:1022300002F0B4FC0F498B69C3F303230E4AD35C4D
:1022400003F01F03D8408B6903F00F03D35C03F046
:102250001F0320FA03F3094A1360094B18600F208B
:10226000FFF7BAFF10B10124204610BD0446FFF766
:1022700083FCF9E700440258F01F01080400002421
:1022800000000024034B1B78034A11680B441360C1
:10229000704700BF080000246C160024014B18682A
:1022A000704700BF6C16002438B50446FFF7F6FFF0
:1022B0000546B4F1FF3F02D0044B1B781C44FFF7E6
:1022C000EDFF401BA042FAD338BD00BF0800002438
:1022D000014B1868000C70470010005C0649CB6881
:1022E00023F4E0631B041B0C000200F4E0600343D2
:1022F000024A1A43CA60704700ED00E00000FA0588
:1023000000B5174BDB68C3F30223C3F1070CBCF124
:10231000040F28BF4FF0040C03F1040EBEF1060FAA
:1023200014D9033B4FF0FF3E0EFA0CFC21EA0C01DE
:1023300099400EFA03F322EA03031943002807DB4E
:102340000901C9B2074B19545DF804FB0023E9E702
:1023500000F00F000901C9B2034B1954F4E700BFA4
:1023600000ED00E000E400E014ED00E0002807DBF1
:1023700000F01F02400901239340024A42F8203036
:10238000704700BF00E100E00138B0F1807F0BD260
:102390004FF0E0235861054AF02182F82310002015
:1023A000986107221A6170470120704700ED00E034
:1023B000002838D010B50446437F1BB3022363774F
:1023C00023791BBB2368194A5A612268936823F05A
:1023D00018039360637913BB23684FF0FF321A61CF
:1023E0002268936823F0600361690B43936022685D
:1023F000936823F08003A1690B4393600123637703
:10240000002010BD0377FFF7D1FBD7E7E268A16892
:10241000204600F00DF80028DCD00120F1E7236809
:1024200022691A61DCE70120704700BFB71DC104B3
:1024300011F0010F30D010B41F231C46013B34B102
:1024400003F01F0C21FA0CFC1CF0010FF5D0182A28
:1024500024D8DFE802F00F232323232323231D2383
:1024600023232323232319232323232323230D007F
:10247000062B17D80368596101688B6823F018038D
:102480001A438A6000200AE0072BF3D9012006E0F6
:102490000F2BEFD9012002E00120704701205DF8E9
:1024A000044B70470120FAE7F0B4876D0468664E6C
:1024B000664DAC4218BFB44242D01835AC423FD052
:1024C0001835AC423CD01835AC4239D01835AC4246
:1024D00036D01835AC4233D01835AC4230D005F583
:1024E0005675AC422CD01835AC4229D01835AC42C8
:1024F00026D01835AC4223D01835AC4220D0183540
:10250000AC421DD01835AC421AD01835AC4217D0A9
:102510004F4DAC4214D01435AC4211D01435AC42FE
:102520000ED01435AC420BD01435AC4208D0143563
:10253000AC4205D01435AC4202D01435AC4207D1C0
:10254000446E856E6560C46E14B1046F456F65603E
:1025500004683D4E3D4DAC4218BFB44252D01835D0
:10256000AC424FD01835AC424CD01835AC4249D0B3
:102570001835AC4246D01835AC4243D01835AC4281
:1025800040D005F55675AC423CD01835AC4239D038
:102590001835AC4236D01835AC4233D01835AC4281
:1025A00030D01835AC422DD01835AC422AD0183571
:1025B000AC4227D0264E274DAC4218BFB44211D0B2
:1025C000254DAC420ED01435AC420BD01435AC4284
:1025D00008D01435AC4205D01435AC4202D01435C5
:1025E000AC4224D1C46D04F01F050124AC407C60D2
:1025F000046863608368402B20D003689960036897
:10260000DA6014E0C46D04F01F0C3F2404FA0CF4EB
:10261000BC6005682C6824F480242C600468636026
:102620008368402B05D0036899600368DA60F0BCCA
:10263000704703689A600368D960F8E703689A6096
:102640000368D960F3E700BF100002402800024091
:10265000085402581C540258305402580368274941
:10266000274A934218BF8B422FD0183293422CD066
:102670001832934229D01832934226D0183293420E
:1026800023D01832934220D0183293421DD002F545
:102690005672934219D01832934216D01832934290
:1026A00013D01832934210D0183293420DD0183202
:1026B00093420AD01832934207D01832934204D082
:1026C00023F0FF038365806D704710B4D9B21039D1
:1026D0000C4AA2FB0142C2F302120B4CA25CC2657F
:1026E0005F2907D9094A1A4004328265806D5DF876
:1026F000044B7047054A1A408265F7E71000024014
:1027000028000240ABAAAAAA0020010800FCFFFF93
:1027100083699BB9836A012B0AD0022B02D00BB1CB
:1027200000207047C36A13F0807F2AD100207047D1
:10273000C36AB3F1C07F26D000207047B3F5005FB5
:102740000AD0836A022B26D9032B26D1C36A13F041
:10275000807F24D100207047836A032B03D8DFE8F1
:1027600003F01404140A00207047C36A13F0807F3A
:102770000DD100207047C36AB3F1C07F09D000209B
:1027800070470120704701207047012070470120E9
:1027900070470120704701207047002070470120DA
:1027A0007047000003682249224A934218BF8B42B7
:1027B00028D01432934225D01432934222D01432BE
:1027C00093421FD0143293421CD01432934219D03A
:1027D0001432934216D0DAB2103A1749A1FB021212
:1027E000120916491944A8291FD9154B13449B00F7
:1027F0000366144B436602F01F02012303FA02F240
:1028000082667047DBB2083B0F4AA2FB03230F4AE4
:1028100002EB1312920002660D4A4266C3F30413E0
:10282000012202FA03F3836670470832DDE700BF36
:10283000085402581C540258ABAAAAAAF0FBFDBFC8
:102840000082001080080240CDCCCCCC009600164F
:102850008058025801794A1E072A2CD830B40368E0
:10286000154D164CA34218BFAB4218D01434A342E6
:1028700015D01434A34212D01434A3420FD0143410
:10288000A3420CD01434A34209D01434A34206D07E
:102890000B4B0B449B00C3660A4B036705E00A4BD6
:1028A0000B449B00C366094B0367012303FA02F242
:1028B000426730BC70477047085402581C54025895
:1028C0003F820010400902403F96001640590258CE
:1028D00070B50446FFF7E2FC002C00F0B681054617
:1028E00023685349534A934218BF8B420CBF0122BD
:1028F000002250D030318B424DD018318B424AD01B
:1029000018318B4247D018318B4244D018318B425A
:1029100041D018318B423ED001F556718B423AD0EE
:1029200018318B4237D018318B4234D018318B425A
:1029300031D018318B422ED018318B422BD0183128
:102940008B4228D018318B4225D03B493B4A9342D9
:1029500018BF8B4200F03181394A934200F02D813B
:102960001432934200F029811432934200F0258101
:102970001432934200F021811432934200F01D8101
:102980001432934200F0198140236365032384F8D5
:10299000353001204AE0022184F83510002184F806
:1029A00034107ABB274A93422CD01832934229D054
:1029B0001832934226D01832934223D018329342D1
:1029C00020D0183293421DD002F55672934219D08E
:1029D0001832934216D01832934213D018329342D1
:1029E00010D0183293420DD0183293420AD01832C8
:1029F000934207D01832934204D01A6822F00102A1
:102A00001A6003E01A6822F001021A6023681A684B
:102A100012F0010F18D0FFF741FC431B052BF5D92D
:102A200020236365032384F83530012070BD00BF87
:102A30001000024028000240085402581C5402585A
:102A400030540258400002401A6881481040A16882
:102A5000E2680A4321690A4361690A43A1690A439A
:102A6000E1690A43216A0A430243616A042900F0CA
:102A700099807849086878490140B1F1005F11D325
:102A80006168A1F12905A1F13F00032888BF052D48
:102A900006D9A1F14700012802D94F39032901D8ED
:102AA00042F480121A602668756925F00705636A8A
:102AB0001D43042B08D1A36A1D43E36A23B12046BA
:102AC000FFF726FE002872D175612046FFF7C6FD8C
:102AD000E36D03F01F023F239340836023685F4947
:102AE0005F4A934218BF8B4242D0183293423FD084
:102AF000183293423CD01832934239D01832934264
:102B000036D01832934233D01832934230D002F587
:102B1000567293422CD01832934229D018329342E5
:102B200026D01832934223D01832934220D0183244
:102B300093421DD0183293421AD01832934217D0C4
:102B4000484A934214D01432934211D01432934223
:102B50000ED0143293420BD01432934208D0143268
:102B6000934205D01432934202D01432934213D1CF
:102B70002046FFF717FEA368802B59D0236E2279D9
:102B80001A60636EA26E5A606368013B072B52D9CC
:102B90000023E3662367636700206065012384F8F0
:102BA000353043E7E16A206B01430A4361E7402384
:102BB0006365012084F8350038E7022284F8352067
:102BC000002284F834201A6827491140A268402A5C
:102BD0002CD0802A27D00022E06842EAD002206967
:102BE00042EAD002606942EAD002A06942EAD00219
:102BF000E06942EAD002206A42EA10120A431A60EF
:102C000022681A4B13441A4AA2FB03231B099B0098
:102C1000E3652046FFF722FDE26D02F01F0101226D
:102C20008A4042605AE74FF48042D5E71022D3E74A
:102C300000236360A2E72046FFF70CFEE36E00224C
:102C40001A60236F626F5A60A6E70120EEE600BFAC
:102C50003F8010FE0010005C0000FFFF10000240EB
:102C600028000240085402580F00FEFFF8ABFDA7F1
:102C7000CDCCCCCC002800F03E8170B5044690F855
:102C80003400012800F03981012084F8340094F8E0
:102C90003500C0B2012807D04FF4006363650023FC
:102CA00084F83430012070BD022084F83500002003
:102CB00060652068924E934DA84218BFB0422FD055
:102CC0001835A8422CD01835A84229D01835A8426A
:102CD00026D01835A84223D01835A84220D0183560
:102CE000A8421DD005F55675A84219D01835A8423E
:102CF00016D01835A84213D01835A84210D0183570
:102D0000A8420DD01835A8420AD01835A84207D0DD
:102D10001835A84204D0056825F00105056003E0D8
:102D2000056825F0010505602046FFF7BDFB236817
:102D30007349744A934218BF8B4238D01832934279
:102D400035D01832934232D0183293422FD01832F5
:102D500093422CD01832934229D01832934226D075
:102D600002F55672934222D0183293421FD0183285
:102D700093421CD01832934219D01832934216D085
:102D80001832934213D01832934210D01832934223
:102D90000DD01A6822F00E0242F00A021A60236C6B
:102DA00093B12268136843F0040313600CE01A68BF
:102DB00022F01E0242F016021A60236C23B1226830
:102DC000136843F00803136023684D494D4A93424A
:102DD00018BF8B4242D0183293423FD018329342F0
:102DE0003CD01832934239D01832934236D0183240
:102DF000934233D01832934230D002F55672934248
:102E00002CD01832934229D01832934226D018324F
:102E1000934223D01832934220D0183293421DD0CF
:102E2000183293421AD01832934217D0364A93423E
:102E300014D01432934211D0143293420ED0143273
:102E400093420BD01432934208D01432934205D0EF
:102E50001432934202D0143293420ED1236E1A6878
:102E600012F4803F03D01A6842F480721A60E36E55
:102E70001BB11A6842F480721A6023682049214A03
:102E8000934218BF8B4230D0183293422DD0183263
:102E900093422AD01832934227D01832934224D03A
:102EA0001832934221D0183293421ED002F5567246
:102EB00093421AD01832934217D01832934214D04A
:102EC0001832934211D0183293420ED018329342E6
:102ED0000BD01832934208D01832934205D01A68AA
:102EE00042F001021A600020DDE61A6842F0010299
:102EF0001A600020D7E6012070470220D3E600BF09
:102F000010000240280002400854025870B50446E0
:102F1000FFF7C4F9002C00F09181054694F8353094
:102F2000DBB2022B06D080236365002384F83430A3
:102F3000012070BD23688C498C4A934218BF8B4294
:102F400030D0183293422DD0183293422AD0183202
:102F5000934227D01832934224D01832934221D082
:102F6000183293421ED002F5567293421AD018328C
:102F7000934217D01832934214D01832934211D092
:102F8000183293420ED0183293420BD0183293422B
:102F900008D01832934205D01A6822F00E021A6047
:102FA000266809E01A6822F01E021A602268536936
:102FB00023F080035361266823686B496B4A934270
:102FC00018BF8B4242D0183293423FD018329342FE
:102FD0003CD01832934239D01832934236D018324E
:102FE000934233D01832934230D002F55672934256
:102FF0002CD01832934229D01832934226D018325E
:10300000934223D01832934220D0183293421DD0DD
:10301000183293421AD01832934217D0544A93422E
:1030200014D01432934211D0143293420ED0143281
:1030300093420BD01432934208D01432934205D0FD
:103040001432934202D01432934204D1226E136898
:1030500023F48073136023684349444A934218BFA2
:103060008B422FD0183293422CD01832934229D061
:103070001832934226D01832934223D0183293420A
:1030800020D0183293421DD002F55672934219D0C7
:103090001832934216D01832934213D0183293420A
:1030A00010D0183293420DD0183293420AD0183201
:1030B000934207D01832934204D01A6822F00102DA
:1030C0001A6003E01A6822F001021A60336813F0F4
:1030D000010F0ED0FFF7E2F8431B052BF6D9202392
:1030E0006365032384F83530002384F834300120ED
:1030F0001FE723681C491D4A934218BF8B4239D0F1
:103100001832934236D01832934233D01832934259
:1031100030D0183293422DD0183293422AD0183230
:10312000934227D002F55672934223D0183293422D
:1031300020D0183293421DD0183293421AD0183240
:10314000934217D01832934214D01832934211D0C0
:10315000183293420ED0A16DE36D03F01F020123DC
:1031600093404B600DE000BF100002402800024079
:1031700008540258A16DE36D03F01F023F239340F2
:103180008B6023682E492F4A934218BF8B4242D04E
:10319000183293423FD0183293423CD018329342B7
:1031A00039D01832934236D01832934233D0183285
:1031B000934230D002F5567293422CD0183293428B
:1031C00029D01832934226D01832934223D0183295
:1031D000934220D0183293421DD0183293421AD015
:1031E0001832934217D0184A934214D014329342A3
:1031F00011D0143293420ED0143293420BD01432B9
:10320000934208D01432934205D01432934202D034
:10321000143293420BD1636EA26E5A60E36E33B1E7
:103220001A6822F480721A60236F626F5A60012359
:1032300084F83530002084F834007AE6012078E6FE
:10324000100002402800024008540258002800F0F4
:10325000298108B5024690F83530DBB2022B03D045
:1032600080234365012008BD0368904890498B4244
:1032700018BF83420CBF0121002166D03030834249
:1032800063D01830834260D0183083425DD018304C
:1032900083425AD01830834257D01830834254D0DA
:1032A00000F55670834250D0183083424DD018300C
:1032B00083424AD01830834247D01830834244D0EA
:1032C0001830834241D0183083423ED018308342B8
:1032D0003BD0196821F00E0119601368A0F59560C4
:1032E00073498B4218BF83426AD072498B4267D0C0
:1032F00018318B4264D018318B4261D018318B4227
:103300005ED018318B425BD018318B4258D001F51A
:1033100056718B4254D018318B4251D018318B42A8
:103320004ED018318B424BD018318B4248D01831D7
:103330008B4245D018318B4242D018318B423FD05E
:10334000196821F0010119603EE0042082F835007F
:1033500081BB584A93422DD0183293422AD018325A
:10336000934227D01832934224D01832934221D06E
:10337000183293421ED002F5567293421AD0183278
:10338000934217D01832934214D01832934211D07E
:10339000183293420ED0183293420BD01832934217
:1033A00008D01832934205D01A6822F001021A6040
:1033B000002058E71A6822F001021A60002052E744
:1033C000196821F0010119601368384838498B42A7
:1033D00018BF834242D018318B423FD018318B4204
:1033E0003CD018318B4239D018318B4236D018314D
:1033F0008B4233D018318B4230D001F556718B425D
:103400002CD018318B4229D018318B4226D018315C
:103410008B4223D018318B4220D018318B421DD0E3
:1034200018318B421AD018318B4217D022498B4267
:1034300014D014318B4211D014318B420ED0143180
:103440008B420BD014318B4208D014318B4205D003
:1034500014318B4202D014318B4217D1116E0B689C
:1034600023F480730B60906DD36D03F01F01012373
:103470008B404360536E916E5960D36E33B11968BF
:1034800021F480711960136F516F5960012382F824
:103490003530002382F83430136D2BB11046984735
:1034A0000020E0E6012070470020DCE6100002402A
:1034B000280002404000024008540258F0B583B092
:1034C0000446002301937D4B1D687D4BA3FB05350E
:1034D000AD0A876D3E68D7F800C0036879497A481D
:1034E000834218BF8B420CBF0120002061D0774A75
:1034F00093425ED0183293425BD01832934258D038
:103500001832934255D01832934252D01832934217
:103510004FD002F5567293424BD01832934248D0A6
:103520001832934245D01832934242D01832934217
:103530003FD0183293423CD01832934239D01832DF
:10354000934236D06249634A934218BF8B4212D0ED
:10355000614A93420FD0143293420CD014329342FA
:1035600009D01432934206D01432934203D014325D
:10357000934240F061821A68E16D01F01F0104205E
:10358000884010EA0C0F00F0A78212F0040F00F040
:10359000A382786012F4004F00F05A8212F4803F48
:1035A00040F05082A36C002B00F0468220469847E2
:1035B00042E2E26D02F01F0108228A40324241D00D
:1035C00070BB424A93422BD01832934228D0183213
:1035D000934225D01832934222D0183293421FD002
:1035E000183293421CD002F55672934218D018320A
:1035F000934215D01832934212D0183293420FD012
:10360000183293420CD01832934209D018329342A8
:1036100006D01832934203D01A68C2F3C00202E007
:103620001A68C2F380026AB11A6822F004021A60B2
:10363000E36D03F01F0208239340BB60636D43F00A
:1036400001036365E26D02F01F0226FA02F313F034
:10365000010F47D023681B481B498B4218BF834288
:103660003CD018318B4239D018318B4236D01831CA
:103670008B4233D018318B4230D018318B422DD051
:1036800018318B422AD001F556718B4226D0183161
:103690008B4223D018318B4220D018318B421DD061
:1036A00018318B421AD018318B4217D018318B4207
:1036B00014D018318B4211D01B6813E00000002495
:1036C000B5814E1B1000024028000240400002401D
:1036D000085402581C540258305402585B6913F0C5
:1036E000800F3BD1E36D03F01F03042202FA03F3C2
:1036F000334240D02268964896498A4218BF824297
:1037000035D018318A4232D018318A422FD0183140
:103710008A422CD018318A4229D018318A4226D0C8
:1037200018318A4223D001F556718A421FD01831D0
:103730008A421CD018318A4219D018318A4216D0D8
:1037400018318A4213D018318A4210D018318A4277
:103750000DD018318A420AD013680CE0012303FA15
:1037600002F2BA60636D43F002036365BAE7126860
:1037700012F0020F3DD1E36D03F01F03102202FA95
:1037800003F333425FD02268714872498A4218BFFE
:10379000824234D018318A4231D018318A422ED038
:1037A00018318A422BD018318A4228D018318A42E7
:1037B00025D018318A4222D001F556718A421ED096
:1037C00018318A421BD018318A4218D018318A42E7
:1037D00015D018318A4212D018318A420FD01831D0
:1037E0008A420CD018318A4209D01268C2F3800292
:1037F00008E0BB60636D43F004036365BBE71268D8
:10380000C2F3C002FAB1BB6023681A6812F4802FB9
:103810000DD01B6813F4002F04D1236C9BB12046FC
:10382000984710E0A36C73B1204698470BE01A68E4
:1038300012F4807F03D11A6822F008021A60236C08
:103840000BB120469847E36D03F01F03202202FAD4
:1038500003F3334200F0928022683D483D498A429A
:1038600018BF82422ED018318A422BD018318A429A
:1038700028D018318A4225D018318A4222D01831F6
:103880008A421FD018318A421CD001F556718A42F3
:1038900018D018318A4215D018318A4212D0183106
:1038A0008A420FD018318A420CD018318A4209D08E
:1038B00018318A4206D018318A4203D01268C2F306
:1038C000400202E01268C2F30012002A56D0BB6028
:1038D00094F83530DBB2042B0ED023681A6812F44A
:1038E000802F39D01B6813F4002F2CD1636C002B70
:1038F00044D02046984741E02268136823F016031D
:1039000013602268536923F080035361236CB3B1C1
:103910002268136823F008031360E36D03F01F02AD
:103920003F239340BB60012384F83530002384F8A3
:103930003430236D002B7FD0204698477CE0A36C69
:10394000002BE5D1E9E7E36BC3B12046984715E0CA
:1039500010000240280002401A6812F4807F09D14A
:103960001A6822F010021A60012384F8353000230F
:1039700084F83430E36B0BB120469847636D002B1D
:103980005AD0636D13F0010F52D0042384F8353000
:1039900023689649964A934218BF8B422FD018321B
:1039A00093422CD01832934229D01832934226D019
:1039B0001832934223D01832934220D018329342C7
:1039C0001DD002F55672934219D01832934216D088
:1039D0001832934213D01832934210D018329342C7
:1039E0000DD0183293420AD01832934207D01832C1
:1039F000934204D01A6822F001021A6003E01A68A8
:103A000022F001021A60019B01330193AB4204D8FA
:103A100023681B6813F0010FF5D123681B6813F0AE
:103A2000010F0BD0032384F83530002384F83430A1
:103A3000E36C0BB12046984703B0F0BD012384F836
:103A40003530F2E7236C002BF6D020469847F3E799
:103A500012F0200F3AD123686449654A934218BF97
:103A60008B422FD0183293422CD01832934229D057
:103A70001832934226D01832934223D01832934200
:103A800020D0183293421DD002F55672934219D0BD
:103A90001832934216D01832934213D01832934200
:103AA00010D0183293420DD0183293420AD01832F7
:103AB000934207D01832934204D01A6822F00402CD
:103AC0001A6003E01A6822F008021A60236C002BC7
:103AD000B2D020469847AFE70220884010EA0C0F8A
:103AE00060D012F0020F5DD0786012F4004F0ED05B
:103AF00012F4803F05D1636C002B9DD0204698477F
:103B00009AE7E36B002B97D02046984794E712F092
:103B1000200F40D123683549354A934218BF8B4264
:103B20002FD0183293422CD01832934229D0183219
:103B3000934226D01832934223D01832934220D099
:103B4000183293421DD002F55672934219D01832A2
:103B5000934216D01832934213D01832934210D0A9
:103B6000183293420DD0183293420AD01832934241
:103B700007D01832934204D01A6822F00A021A6061
:103B800003E01A6822F014021A60012384F8353029
:103B9000002384F83430E36B002B3FF44DAF204614
:103BA000984749E7082000FA01F111EA0C0F3FF4A9
:103BB00043AF12F0080F3FF43FAF1A6822F00E0235
:103BC0001A60E36D03F01F03012202FA03F37B6026
:103BD000626584F83520002384F83430E36C002BD0
:103BE0003FF42AAF2046984726E700BF1000024066
:103BF00028000240406D7047F0B583B000236BE0B1
:103C000085685E000324B44025EA0405CC68B4400E
:103C10002C438460446824EA0C0C4C68C4F3001400
:103C20009C4044EA0C04446068E0DD08083550F824
:103C3000256003F007044FEA840C0F2404FA0CF407
:103C400026EA040E0C6904FA0CF444EA0E0440F867
:103C500025406BE0092400E0002404FA0EF42C4314
:103C60000CF1020C694D45F82C404FF0B04425682A
:103C7000D44325EA02064F6817F4801F01D042EAB8
:103C800005064FF0B0452E606D6804EA05064F68E2
:103C900017F4001F01D042EA05064FF0B0456E60F0
:103CA000D5F8845004EA05064F6817F4003F01D0A8
:103CB00042EA05064FF0B045C5F88460D5F880505B
:103CC0002C404E6816F4803F01D042EA05044FF0C4
:103CD000B042C2F8804001330A6832FA03F400F0BF
:103CE00092804FF0010C0CFA03FC1CEA0202F2D0A5
:103CF0004C6804F00304013C012C81D94C6804F0A9
:103D00000304032C0CD0C4685D004FF0030C0CFAC4
:103D100005FC24EA0C0C8C68AC4044EA0C04C4603A
:103D20004C6804F00304022C3FF47FAF04684FEAB0
:103D3000430E4FF0030C0CFA0EFC24EA0C0C4C68FA
:103D400004F0030404FA0EF444EA0C0404604C6822
:103D500014F4403FBFD02E4CD4F8F45045F0020587
:103D6000C4F8F450D4F8F44004F002040194019C27
:103D70004FEA930C0CF10205244C54F8255003F043
:103D800003044FEA840E0F2404FA0EF425EA040516
:103D9000204CA0423FF460AF04F58064A04222D0E2
:103DA00004F58064A04220D004F58064A0421ED0B7
:103DB00004F58064A0421CD004F58064A0421AD0AF
:103DC00004F58064A04218D004F58064A04216D0A7
:103DD00004F58064A04214D004F58064A0423FF44E
:103DE00039AF0A2439E7012437E7022435E70324F1
:103DF00033E7042431E705242FE706242DE70724C1
:103E00002BE7082429E703B0F0BD00BF00040058E9
:103E100000440258000002580AB181617047090449
:103E200081617047436901EA030221EA030141EA23
:103E3000024181617047704708B54FF0B043D3F835
:103E40008830034200D108BD4FF0B043C3F888006A
:103E5000FFF7F1FFF7E703689A6912F0020F01D04C
:103E600000229A6203689A6912F0010F03D19A69DD
:103E700042F001029A61704710B4019CC1F309013C
:103E800041EA02411943214321F00041026853688D
:103E9000640D04F4806444F07F7444F4583444F4B2
:103EA0007F7444F0030423EA0404214351605DF865
:103EB000044B70472DE9F041044603689E6916F0F3
:103EC00010067ED00D4690461022DA610026374655
:103ED0002368986910F0200F32D18FBBB5F1FF3FF6
:103EE000F6D0FEF7DBF9A0EB0800A84201D8002DC0
:103EF000EED121684A6802F4804294F84230DBB285
:103F0000886910F4004F04D0203B18BF012302B988
:103F100073B923689B6913F0200FD9D1FEF7BEF95E
:103F2000A0EB08001928F4D946F020060127CFE7B6
:103F30004B6843F480434B60FEF7B0F98046E8E7F6
:103F40000FB92022DA6146F0040601252268936940
:103F500013F4807F05D046F001064FF48071D161E3
:103F6000012513F4806F06D046F0080622684FF44E
:103F70008061D161012513F4007F24D046F0020650
:103F800023684FF40072DA6101252046FFF763FFD2
:103F90002268536823F0FF7323F48B3323F4FF73F9
:103FA00023F001035360636C1E436664202384F88E
:103FB0004130002384F8423084F840302846BDE880
:103FC000F0810025C2E7002DF8D0DEE770B5044689
:103FD0000D46164623689B6913F0020F22D1324624
:103FE00029462046FFF766FFF0B9B5F1FF3FF1D053
:103FF000FEF754F9801BA84201D8002DEAD12368AE
:104000009B6913F0020FE5D1636C43F020036364F6
:10401000202384F84130002384F8423084F8403073
:10402000012000E0002070BD0120FCE72DE9F041F7
:1040300005460F46164698462C68A46937EA0403DD
:104040000CBF4FF0010C4FF0000CB44522D1B8F179
:10405000FF3FF1D0FEF722F9069BC01A404502D877
:10406000B8F1000FE8D12B689B6937EA03030CBF56
:1040700001230023B342DFD16B6C43F020036B6458
:10408000202385F84130002385F8423085F8403000
:10409000012000E00020BDE8F08100002DE9F041A2
:1040A00082B0044690461D46089E099F184B009317
:1040B0000023EAB2FFF7E0FE3A4631462046FFF71A
:1040C00085FFF8B9012D0ED123685FFA88F29A6254
:1040D00000973346002240212046FFF7A7FFA8B9EA
:1040E00002B0BDE8F08123684FEA18229A623A468E
:1040F00031462046FFF76AFF30B923685FFA88F23D
:104100009A62E5E70120EBE70120E9E70120E7E714
:104110000020008070B504460D46164604E0236872
:104120009B6913F0200F12D023689B6913F0200FB6
:104130001BD1324629462046FFF7BCFEB8B9FEF730
:10414000ADF8801BA842EAD8002DEDD1E7E7636CFB
:1041500043F020036364202384F84130002384F873
:10416000423084F84030012000E0002070BD012082
:10417000FCE70000002857D010B5044690F8413005
:10418000002B41D0242384F841302268136823F0A7
:10419000010313606368226823F07063136122686F
:1041A000936823F400439360E368012B31D0A36844
:1041B000226843F404439360E368022B2FD0226803
:1041C00051681A4B0B4353602268D36823F40043B1
:1041D000D360236962691343A169226843EA01231A
:1041E000D360E369216A22680B4313602268136875
:1041F00043F00103136000206064202384F8413001
:10420000206384F8420010BD80F84030FDF7E6FCE2
:10421000B8E7A368226843F400439360CCE72368BF
:104220004FF400625A60CAE7012070470080000224
:104230002DE9F04F83B00D46BDF834A00E9F90F8E5
:104240004110C9B2202940F0BD80044690469946ED
:104250000C9BBAF1000F18BF002B16D090F840301D
:10426000012B00F0B3804FF0010B80F840B0FEF757
:1042700015F80646009019235A464FF4004120468F
:10428000FFF7D4FE30B101209DE04FF4007343648A
:10429000012098E0222384F84130402384F8423002
:1042A000002363640C9A6262A4F82AA063630196F7
:1042B00000974B46424629462046FFF7EFFE70B96D
:1042C000638D9BB2FF2B0FD9FF222285434B0093B6
:1042D0004FF0807329462046FFF7CEFD21E00023F2
:1042E00084F8403058466EE0628D92B222853B4B96
:1042F00000934FF00073D2B229462046FFF7BCFD71
:104300000FE0628D92B22285002300934FF000737C
:10431000D2B229462046FFF7AFFD638D9BB2002B3A
:1043200034D000963B46002204212046FFF77EFE53
:1043300000284DD123685A6A636A1A70636A013390
:104340006362228D013A92B22285638D9BB2013B5A
:104350009BB26385638D9BB2002BDED0002ADCD13B
:1043600000963B4680212046FFF760FE90BB638DA0
:104370009BB2FF2BC5D9FF222285002300934FF06B
:10438000807329462046FFF777FDC6E73246394657
:104390002046FFF7BFFEF8B923682022DA612168C2
:1043A0004B6823F0FF7323F48B3323F4FF7323F064
:1043B00001034B6084F84120002384F8423084F8E4
:1043C000403000E0022003B0BDE8F08F0220FAE7A1
:1043D0000120F8E70120F6E70120F4E7002400803F
:1043E00090F84130DBB2202B24D190F84030012BE3
:1043F00022D0012380F84030242380F84130026825
:10440000136823F0010313600268136823F48053D8
:10441000136002681368194311600268136843F05F
:1044200001031360202380F84130002380F84030DE
:1044300018467047022070470220704790F84130BC
:10444000DBB2202B22D190F84030012B20D0012369
:1044500080F84030242380F841300268136823F04C
:10446000010313600268136823F4706343EA0121B7
:1044700011600268136843F001031360202380F881
:104480004130002380F840301846704702207047C2
:1044900002207047134BDB6813F0040F07D1114B58
:1044A000DB6803F0070383421AD00120704710B580
:1044B0000C4AD36823F007031843D060FDF7EEFEE3
:1044C0000446084B5B6813F4005F07D1FDF7E6FE76
:1044D000001BB0F57A7FF4D9012000E0002010BD68
:1044E0000020704700480258002800F0398338B592
:1044F0000446036813F0010F25D0944A136903F0B2
:104500003803926A102B15D0182B0FD06368B3F5BF
:10451000803F3FD0002B53D18C4B1A6822F480325D
:104520001A601A6822F480221A6038E002F003024E
:10453000022AEBD1854B1B6813F4003F03D063685C
:10454000002B00F00F83236813F0020F00F0A1800E
:104550007E4A1369926A13F038035AD0182B55D04B
:10456000E368002B00F0DE8078490A6822F0190227
:1045700013430B60FDF792FE0546744B1B6813F066
:10458000040F40F0AD80FDF789FE401B0228F4D9EE
:104590000320EEE26D4A136843F4803313606368CE
:1045A0002BB3FDF77BFE0546684B1B6813F4003FF9
:1045B000C9D1FDF773FE401B6428F5D90320D8E26A
:1045C000B3F5A02F09D0614B1A6822F480321A602B
:1045D0001A6822F480221A60E1E75C4B1A6842F400
:1045E00080221A601A6842F480321A60D7E7FDF719
:1045F00055FE0546554B1B6813F4003FA3D0FDF74D
:104600004DFE401B6428F5D90320B2E212F0030FDF
:10461000A6D14E4B1B6813F0040F03D0E368002BA8
:1046200000F0A282494A136823F01903E1680B43A2
:104630001360FDF733FE0546444B1B6813F0040F6F
:1046400006D1FDF72BFE401B0228F5D9032090E28E
:10465000FDF73EFE41F20303984212D82269402A38
:1046600007D03A494B6823F47C3343EA02334B606A
:104670000FE0364A536823F47C3343F4003353602D
:1046800007E0324A536823F0FE43216943EA01639D
:104690005360236813F0100F00F088802B4A1369D1
:1046A00003F03803926A082B56D0182B50D0E369D8
:1046B000002B00F0B880254A136843F08003136094
:1046C000FDF7ECFD0546214B1B6813F4807F40F09D
:1046D0008880FDF7E3FD401B0228F4D9032048E25F
:1046E000FDF7F6FD41F20303984212D82269402AF1
:1046F00007D016494B6823F47C3343EA02334B60FE
:10470000C7E7124A536823F47C3343F40033536001
:10471000BFE70E4A536823F0FE43216943EA016371
:104720005360B6E7094A136823F001031360FDF7ED
:10473000B5FD0546054B1B6813F0040FA9D0FDF726
:10474000ADFD401B0228F5D9032012E200440258B7
:1047500002F00302012AAAD1A14B1B6813F4807F47
:1047600003D0E369802B40F00182FDF7B1FD41F2F7
:104770000303984212D8226A202A07D098494B682E
:1047800023F0F84343EA82634B600FE0944A536896
:1047900023F0F84343F08043536007E0904AD36826
:1047A00023F07C53216A43EA0163D360236813F04A
:1047B000080F60D06369002B49D0894A536F43F0DA
:1047C00001035367FDF76AFD0546854B5B6F13F0E8
:1047D000020F50D1FDF762FD401B0228F5D90320DE
:1047E000C7E1FDF775FD41F20303984212D8226A32
:1047F000202A07D07A494B6823F0F84343EA8263C2
:104800004B60D3E7764A536823F0F84343F0804384
:104810005360CBE7724AD36823F07C53216A43EAA2
:104820000163D360C2E76E4A136823F0800313600C
:10483000FDF734FD05466A4B1B6813F4807FB5D045
:10484000FDF72CFD401B0228F5D9032091E1644AB5
:10485000536F23F001035367FDF720FD0546604BBE
:104860005B6F13F0020F06D0FDF718FD401B022806
:10487000F5D903207DE1236813F0200F29D0A36927
:104880009BB1574A136843F480531360FDF706FD4C
:104890000546534B1B6813F4005F1AD1FDF7FEFC6D
:1048A000401B0228F5D9032063E14D4A136823F425
:1048B00080531360FDF7F2FC0546494B1B6813F467
:1048C000005F06D0FDF7EAFC401B0228F5D9032063
:1048D0004FE1236813F0040F21D1636A002B00F02D
:1048E00047813F4A126902F03802182A00F0EE8030
:1048F000022B79D03A4A136823F080731360FDF7D6
:10490000CDFC0446364B1B6813F0007F00F0DC80C2
:10491000FDF7C4FC001B0228F4D9032029E1314A29
:10492000136843F480731360FDF7B8FC05462D4B04
:104930001B6813F4807F06D1FDF7B0FC401B642890
:10494000F5D9032015E1A368012B0AD00BBB244B3A
:104950001A6F22F001021A671A6F22F004021A6716
:1049600004E01F4A136F43F001031367A36833B3D6
:10497000FDF794FC05461A4B1B6F13F0020FACD1E8
:10498000FDF78CFC401B41F288339842F3D9032099
:10499000EFE0052B09D0124B1A6F22F001021A67C3
:1049A0001A6F22F004021A67E0E70D4B1A6F42F00B
:1049B00004021A671A6F42F001021A67D6E7FDF780
:1049C0006DFC0546064B1B6F13F0020F85D0FDF7FB
:1049D00065FC401B41F288339842F3D90320C8E0BC
:1049E0000044025800480258694A136823F0807353
:1049F0001360FDF753FC0546654B1B6813F0007F01
:104A000006D0FDF74BFC401B0228F5D90320B0E08F
:104A10005F4B996A5F4A0A40A16AE06A41EA001165
:104A20000A439A62226B013AC2F30802616B0139B0
:104A3000490289B20A43A16B0139090401F4FE015C
:104A40000A43E16B0139090601F0FE410A431A638A
:104A5000DA6A22F00102DA62596B4F4A0A40A16C0D
:104A600042EAC1025A63DA6A22F00C02216C0A435C
:104A7000DA62DA6A22F00202616C0A43DA62DA6A06
:104A800042F48032DA62DA6A42F40032DA62DA6AD6
:104A900042F48022DA62DA6A42F00102DA621A68CB
:104AA00042F080721A60FDF7F9FB0446384B1B6830
:104AB00013F0007F06D1FDF7F1FB001B0228F5D9AA
:104AC000032056E0002054E0002052E0304A916A72
:104AD000106B012B4ED001F00303A26A93424BD11D
:104AE000C1F30511E36A994248D1C0F30802236B70
:104AF000013B9A4244D1C0F34622636B013B9A4288
:104B000040D1C0F30642A36B013B9A423CD1C0F3B3
:104B10000660E36B013B984238D11D4B5B6BC3F3DE
:104B2000CC03A26C9A4201D1002022E0184AD36A39
:104B300023F00103D362FDF7B1FB0546FDF7AEFBA1
:104B4000A842FBD0124A516B134B0B40A16C43EAB5
:104B5000C1035363D36A43F00103D362002008E02A
:104B600001207047012004E0012002E0012000E064
:104B7000002038BD0120FCE70120FAE70120F8E71A
:104B80000120F6E70120F4E70120F2E70120F0E739
:104B9000004402580CFCFFFF0700FFFF744B1B6929
:104BA00003F03803102B00F0DE80182B10D00BB16F
:104BB000704870476E4B1B6813F0200F00F0D580D3
:104BC0006B4B1868C0F3C1006B4B23FA00F07047C1
:104BD00010B4674A916A01F00301946AC4F30510A6
:104BE000D36A03F0010C536BC3F3CC030CFB03F348
:104BF00007EE903AF8EE677A14F47C7F00F0938029
:104C0000012965D0022900F09180E1B107EE100A78
:104C1000F8EE476A9FED596A86EE267A544B1B6B75
:104C2000C3F3080306EE903AF8EE666A9FED546A05
:104C300067EE867A76EEA77AF7EE006A77EEA67AC6
:104C400027EE277A60E0136813F0200F23D0114677
:104C50001268C2F3C102484BD34007EE103AF8EE97
:104C6000476A07EE100AB8EE476A86EE867A0B6B43
:104C7000C3F3080306EE903AF8EE666A9FED406AC9
:104C800067EE867A76EEA77AF7EE006A77EEA67A76
:104C900027EE277A38E007EE100AF8EE476A9FED14
:104CA000396A86EE267A324B1B6BC3F3080306EE95
:104CB000903AF8EE666A9FED326A67EE867A76EE93
:104CC000A77AF7EE006A77EEA67A27EE277A1BE03E
:104CD00007EE100AF8EE476A9FED286A86EE267AFC
:104CE000234B1B6BC3F3080306EE903AF8EE666A9B
:104CF0009FED236A67EE867A76EEA77AF7EE006A72
:104D000077EEA67A27EE277A194B1B6BC3F346235F
:104D1000013307EE903AF8EE677AC7EE276AFCEEA9
:104D2000E67A17EE900A5DF8044B704707EE100A1A
:104D3000F8EE476A9FED146A86EE267A0C4B1B6BE1
:104D4000C3F3080306EE903AF8EE666A9FED0C6A2C
:104D500067EE867A76EEA77AF7EE006A77EEA67AA5
:104D600027EE277AD0E7094870470348704700BF0D
:104D70000044025800093D000090D0030024744A0A
:104D8000000000390024744C20BCBE4B40787D01EB
:104D9000002800F0328170B50D4604469B4B1B681D
:104DA00003F00F038B420BD2984A136823F00F03D2
:104DB0000B431360136803F00F038B4240F01F8115
:104DC000236813F0040F0CD02269914B9B6903F008
:104DD00070039A4205D98E498B6923F070031A43F8
:104DE0008A61236813F0080F0CD06269884BDB6975
:104DF00003F070039A4205D98549CB6923F070030B
:104E00001A43CA61236813F0100F0CD0A269804BBB
:104E1000DB6903F4E0639A4205D97D49CB6923F449
:104E2000E0631A43CA61236813F0200F0CD0E269D3
:104E3000774B1B6A03F070039A4205D974490B6AD9
:104E400023F070031A430A62236813F0020F0CD098
:104E5000E2686F4B9B6903F00F039A4205D96C49D6
:104E60008B6923F00F031A438A61236813F0010F43
:104E700041D0674A936923F47063A1680B4393613F
:104E80006368022B0AD0032B27D0012B2CD0604A59
:104E9000126812F0040F06D10120ADE0126812F47E
:104EA000003F00F0AE805A490A6922F0070213431E
:104EB0000B61FDF7F3F90646554B1B6903F0380308
:104EC0006268B3EBC20F16D0FDF7E8F9801B41F220
:104ED00088339842F0D903208EE04D4A126812F0D0
:104EE000007FE0D1012087E0494A126812F4807FF8
:104EF000D9D1012080E0236813F0020F0CD0E268C2
:104F0000434B9B6903F00F039A4205D240498B69DA
:104F100023F00F031A438A613C4B1B6803F00F0315
:104F2000AB420AD9394A136823F00F032B431360AD
:104F3000136803F00F03AB4265D1236813F0040F2D
:104F40000CD02269324B9B6903F070039A4205D260
:104F50002F498B6923F070031A438A61236813F089
:104F6000080F0CD062692A4BDB6903F070039A4288
:104F700005D22749CB6923F070031A43CA6123681D
:104F800013F0100F0CD0A269214BDB6903F4E0632E
:104F90009A4205D21E49CB6923F4E0631A43CA61E1
:104FA000236813F0200F0CD0E269194B1B6A03F041
:104FB00070039A4205D216490B6A23F070031A4314
:104FC0000A62FFF7EBFD12498B69C3F30323114A11
:104FD000D35C03F01F03D8408B6903F00F03D35C4D
:104FE00003F01F0320FA03F30B4A13600B4B186006
:104FF0000B4B1868FDF7F0F870BD012070470120D9
:10500000FAE70120F8E70120F6E700BF0020005290
:1050100000440258F01F010804000024000000248E
:105020000C00002408B5FFF7B9FD0B4A9369C3F3E0
:1050300003230A49CB5C03F01F0320FA03F39269B0
:1050400002F00F02885C00F01F0023FA00F0044A0F
:105050001060044A136008BD00440258F01F0108A4
:10506000040000240000002408B5FFF7DBFF054B17
:10507000DB69C3F30213044AD35C03F01F03D84077
:1050800008BD00BF00440258F01F010808B5FFF733
:10509000C9FF054BDB69C3F30223044AD35C03F069
:1050A0001F03D84008BD00BF00440258F01F01088C
:1050B000404B9B6A03F00303032B79D070B5054680
:1050C0000E463C4A136823F080631360FDF7E6F850
:1050D0000446384B1B6813F0006F06D0FDF7DEF86E
:1050E000031B022BF5D9032070BD324B9A6A22F4C0
:1050F0007C32296842EA01329A626A68013AC2F354
:105100000802A9680139490289B20A43E9680139EC
:10511000090401F4FE010A4329690139090601F075
:10512000FE410A439A63DA6A22F0C00269690A43BF
:10513000DA62DA6A22F02002A9690A43DA62DA6ADC
:1051400022F01002DA62D96B1B4A0A40E96942EA8E
:10515000C102DA63DA6A42F01002DA62C6B91A46AC
:10516000DB6A43F40023D362124A136843F080637E
:105170001360FDF793F804460E4B1B6813F0006FA5
:1051800014D1FDF78BF8001B0228F5D90320ABE7FB
:10519000012E05D0074AD36A43F40013D362E3E734
:1051A000044AD36A43F48013D362DDE700209BE70F
:1051B00001207047004402580700FFFF404B9B6AE4
:1051C00003F00303032B79D070B505460E463C4A25
:1051D000136823F080531360FDF760F80446384BE2
:1051E0001B6813F0005F06D0FDF758F8031B022B75
:1051F000F5D9032070BD324B9A6A22F07C7229687F
:1052000042EA01529A626A68013AC2F30802A96846
:105210000139490289B20A43E9680139090401F4F4
:10522000FE010A4329690139090601F0FE410A43DA
:105230001A64DA6A22F4406269690A43DA62DA6A55
:1052400022F40072A9690A43DA62DA6A22F48072EF
:10525000DA62596C1B4A0A40E96942EAC1025A649F
:10526000DA6A42F48072DA62C6B91A46DB6A43F43B
:105270008003D362124A136843F080531360FDF732
:105280000DF804460E4B1B6813F0005F14D1FDF7B8
:1052900005F8001B0228F5D90320ABE7012E05D045
:1052A000074AD36A43F08073D362E3E7044AD36AC0
:1052B00043F40003D362DDE700209BE70120704741
:1052C000004402580700FFFFF8B50446036813F0D6
:1052D000006F30D0836EB3F5001F26D00ED8EBB12F
:1052E000B3F5801F07D102210830FFF7E1FE054624
:1052F00045B12E4621E0012635461EE0B3F5401F9C
:1053000009D10025984A136D23F44013A16E0B4375
:105310001365002611E0012635460EE0924AD36A55
:1053200043F40033D3620025ECE702212830FFF775
:1053300045FF0546DCE700263546236813F4807FE9
:1053400014D0A36D042B32D8DFE803F003232A081E
:105350000800854AD36A43F40033D36255BB824ABE
:10536000136D23F00703A16D0B431365236813F43A
:10537000007F31D0E36D802B4CD020D8002B43D060
:10538000402B19D1002104F10800FFF791FE0546DA
:105390001AE0002104F10800FFF78AFE0546DDE768
:1053A000002104F12800FFF709FF0546D6E7012692
:1053B0003546DBE72E46D9E7012635460CE0C02B03
:1053C00002D0B3F5807F1CD15DBB674A136D23F417
:1053D000E073E16D0B431365236813F4806F46D0CF
:1053E000D4F8A830B3F5800F39D01FD88BB3B3F5FC
:1053F000001F18D1002104F10800FFF759FE0546EF
:105400001AE001263546E7E7574AD36A43F40033EA
:10541000D362D9E7002104F12800FFF7CFFE05464B
:10542000D2E72E46D8E70126354620E0B3F5C00F77
:1054300002D0B3F5000F09D1C5B94B4A936D23F4DF
:105440006003D4F8A8100B43936510E0012635469D
:105450000DE0454AD36A43F40033D362ECE7002100
:1054600004F12800FFF7AAFE0546E5E72E4623686B
:1054700013F4006F24D0D4F8AC30B3F1007F42D0E5
:105480000ED8002B39D0B3F1807F06D1002104F172
:105490000800FFF70DFE054608E0012635460FE03F
:1054A000B3F1407F02D0B3F1806F23D1002D31D111
:1054B0002D4A936D23F0E063D4F8AC100B43936551
:1054C000236813F0007F2ED0E36C202B40D026D829
:1054D00033B1102B20D1244AD36A43F40033D36272
:1054E000002D3CD1204AD36C23F03003E16C0B43F8
:1054F000D36418E001263546E2E71B4AD36A43F439
:105500000033D362D2E7002104F12800FFF756FEF2
:105510000546CBE72E46D3E70126354603E0302B80
:10552000DED001263546236813F4805F2DD0236E2C
:10553000B3F5005F4FD019D8002B46D0B3F5805F8C
:105540000FD1002104F10800FFF7B2FD054613E07A
:10555000022104F10800FFF7ABFD0546C0E72E4627
:10556000E1E70126354610E000440258B3F5405FFC
:1055700002D0B3F5804F25D1002D33D1774A136D7A
:1055800023F4E043216E0B431365236813F4005F9B
:1055900038D0636EB3F5003F53D028D843B1B3F58C
:1055A000803F21D1012104F10800FFF781FD05466C
:1055B000002D4DD1694A136D23F4E023616E0B4336
:1055C00013651FE001263546DFE7644AD36A43F4DA
:1055D0000033D362D0E7002104F12800FFF7EEFD8D
:1055E0000546C9E72E46D0E7012635460AE0B3F561
:1055F000802FDDD0B3F5A02FDAD0B3F5403FD7D060
:1056000001263546236813F4804F31D0D4F8B030EA
:10561000B3F1005F45D020D843B1B3F1805F19D119
:10562000012104F10800FFF743FD0546002D3FD19D
:105630004A4A936D23F0E043D4F8B0100B439365CE
:1056400016E0012104F12800FFF7B8FD0546AFE799
:105650002E46D7E7012635460AE0B3F1804FE5D064
:10566000B3F1A04FE2D0B3F1405FDFD00126354661
:10567000236813F4004F09D0236FB3F1805F19D072
:10568000B3F1005F24D0D3B101263546236813F06F
:10569000807F33D0A36C032B5BD8DFE803F0272295
:1056A0005327012104F12800FFF788FD0546BDE7D7
:1056B0002E46DDE7294AD36A43F40033D36275B935
:1056C000264A136D23F04053216F0B431365DDE72A
:1056D000012104F10800FFF7EBFC0546EFE72E4639
:1056E000D4E71E4AD36A43F40033D362A5BB1B4AF6
:1056F000D36C23F00303A16C0B43D364236813F42E
:10570000800F2DD1236813F0010F00F0A580E36F07
:10571000282B00F29F80DFE803F08D9D9D9D9D9DCD
:105720009D9D879D9D9D9D9D9D9D969D9D9D9D9DC6
:105730009D9D8D9D9D9D9D9D9D9D8D9D9D9D9D9DB9
:105740009D9D8D00022104F10800FFF7B1FC054684
:10575000CCE701263546D1E72E46CFE70044025874
:10576000914A136843F480731360FCF797FD074672
:105770008D4B1B6813F4807F05D1FCF78FFDC01B98
:105780006428F5D90325002D4AD1884B1B6FD4F826
:10579000B420534013F4407F0CD0844B1A6F22F492
:1057A0004072196F41F480311967196F21F480310B
:1057B00019671A67D4F8B430B3F5807F15D08DBB64
:1057C000D4F8B43003F44072B2F5407F1ED0774A6B
:1057D000136923F47C53136174490B6FD4F8B4201C
:1057E000C2F30B0213430B678CE7FCF757FD074628
:1057F0006E4B1B6F13F0020FE1D1FCF74FFDC01B86
:1058000041F288339842F3D90325D8E76748026903
:1058100022F47C52664901EA131313430361DBE768
:105820002E466FE72E466DE7012104F10800FFF7D1
:105830003FFC0546E5B95D4A536D23F03803E16F3F
:105840000B43536508E0012104F12800FFF7B6FC83
:105850000546EFE701263546236813F0020F17D0FF
:10586000A36F052B28D8DFE803F00B05200B0B0BEB
:105870002E46F1E7012104F10800FFF719FC054667
:10588000EDB94A4A536D23F00703A16F0B435365EB
:10589000236813F0040F23D0D4F89430052B45D897
:1058A000DFE803F0150F3D151515012104F128005F
:1058B000FFF784FC0546E3E701263546E8E72E4678
:1058C000E6E7012104F10800FFF7F2FB054685BB7E
:1058D000364A936D23F00703D4F894100B43936575
:1058E000236813F0200F34D0D4F89030B3F1005F68
:1058F0004ED023D843B1B3F1805F1CD1002104F115
:105900000800FFF7D5FB0546002D48D1274A536D07
:1059100023F0E043D4F890100B43536519E00121C4
:1059200004F12800FFF74AFC0546D0E7012635467A
:10593000D6E72E46D4E7012635460AE0B3F1804F7C
:10594000E2D0B3F1A04FDFD0B3F1405FDCD001264D
:105950003546236813F0400F37D0D4F89C30B3F5A8
:10596000006F53D026D843B1B3F5806F19D1002111
:1059700004F10800FFF79CFB0546002D4DD10B4AB2
:10598000936D23F4E053D4F89C100B4393651CE013
:10599000022104F12800FFF711FC0546B4E72E466A
:1059A000D7E70126354610E0004802580044025867
:1059B000CFFFFF00B3F5805FDFD0B3F5A05FDCD091
:1059C000B3F5406FD9D001263546236813F0800F18
:1059D00033D0D4F8A030B3F5804F00F0A38021D8A5
:1059E00043B1B3F5005F1AD1002104F10800FFF7BD
:1059F0005FFB0546002D40F09C80814A936D23F4A7
:105A00006043D4F8A0100B43936516E0022104F123
:105A10002800FFF7D3FB0546AFE72E46D5E7012662
:105A200035460AE0B3F5004FE4D0B3F5204FE1D09E
:105A3000B3F5C04FDED001263546236813F0080FBA
:105A40000CD0D4F88430B3F5805F74D06C4A536DB9
:105A500023F44053D4F884100B435365236813F0A8
:105A6000100F0CD0D4F89830B3F5807F6CD0644A16
:105A7000936D23F44073D4F898100B439365236817
:105A800013F4002F0BD0D4F8A430B3F5803F74D0BA
:105A9000B3F5003F67D0002B5FD001263546236861
:105AA00013F4802F0CD0D4F88830B3F5001F7CD0CD
:105AB000B3F5401F6FD0B3F5801F67D00126354680
:105AC000236813F4803F08D0236D002B76D0B3F504
:105AD000803F00F0818001263546236813F0005F87
:105AE00040F08380236813F4003F00F08E80D4F8E8
:105AF0008030B3F5807F00F0EC8040F28380B3F516
